{
  "contractName": "MaTokenSale",
  "abi": [
    {
      "inputs": [
        {
          "internalType": "contract MaToken",
          "name": "_tokenContract",
          "type": "address"
        },
        {
          "internalType": "uint256",
          "name": "_tokenPrice",
          "type": "uint256"
        }
      ],
      "payable": false,
      "stateMutability": "nonpayable",
      "type": "constructor"
    },
    {
      "anonymous": false,
      "inputs": [
        {
          "indexed": false,
          "internalType": "uint256",
          "name": "_message",
          "type": "uint256"
        }
      ],
      "name": "DebugBalance",
      "type": "event"
    },
    {
      "anonymous": false,
      "inputs": [
        {
          "indexed": false,
          "internalType": "uint256",
          "name": "_message",
          "type": "uint256"
        }
      ],
      "name": "DebugNumTokens",
      "type": "event"
    },
    {
      "anonymous": false,
      "inputs": [
        {
          "indexed": false,
          "internalType": "address",
          "name": "_buyer",
          "type": "address"
        },
        {
          "indexed": false,
          "internalType": "uint256",
          "name": "_amount",
          "type": "uint256"
        }
      ],
      "name": "Sell",
      "type": "event"
    },
    {
      "constant": true,
      "inputs": [],
      "name": "tokenContract",
      "outputs": [
        {
          "internalType": "contract MaToken",
          "name": "",
          "type": "address"
        }
      ],
      "payable": false,
      "stateMutability": "view",
      "type": "function"
    },
    {
      "constant": true,
      "inputs": [],
      "name": "tokenPrice",
      "outputs": [
        {
          "internalType": "uint256",
          "name": "",
          "type": "uint256"
        }
      ],
      "payable": false,
      "stateMutability": "view",
      "type": "function"
    },
    {
      "constant": true,
      "inputs": [],
      "name": "tokensSold",
      "outputs": [
        {
          "internalType": "uint256",
          "name": "",
          "type": "uint256"
        }
      ],
      "payable": false,
      "stateMutability": "view",
      "type": "function"
    },
    {
      "constant": false,
      "inputs": [
        {
          "internalType": "uint256",
          "name": "_numberOfTokens",
          "type": "uint256"
        }
      ],
      "name": "buyTokens",
      "outputs": [],
      "payable": true,
      "stateMutability": "payable",
      "type": "function"
    }
  ],
  "bytecode": "0x608060405234801561001057600080fd5b506040516106483803806106488339818101604052604081101561003357600080fd5b810190808051906020019092919080519060200190929190505050336000806101000a81548173ffffffffffffffffffffffffffffffffffffffff021916908373ffffffffffffffffffffffffffffffffffffffff16021790555081600160006101000a81548173ffffffffffffffffffffffffffffffffffffffff021916908373ffffffffffffffffffffffffffffffffffffffff160217905550806002819055505050610561806100e76000396000f3fe60806040526004361061003f5760003560e01c80633610724e14610044578063518ab2a81461007257806355a373d61461009d5780637ff9b596146100f4575b600080fd5b6100706004803603602081101561005a57600080fd5b810190808035906020019092919050505061011f565b005b34801561007e57600080fd5b506100876104ce565b6040518082815260200191505060405180910390f35b3480156100a957600080fd5b506100b26104d4565b604051808273ffffffffffffffffffffffffffffffffffffffff1673ffffffffffffffffffffffffffffffffffffffff16815260200191505060405180910390f35b34801561010057600080fd5b506101096104fa565b6040518082815260200191505060405180910390f35b61012b81600254610500565b341461013657600080fd5b80600160009054906101000a900473ffffffffffffffffffffffffffffffffffffffff1673ffffffffffffffffffffffffffffffffffffffff166370a08231306040518263ffffffff1660e01b8152600401808273ffffffffffffffffffffffffffffffffffffffff1673ffffffffffffffffffffffffffffffffffffffff16815260200191505060206040518083038186803b1580156101d657600080fd5b505afa1580156101ea573d6000803e3d6000fd5b505050506040513d602081101561020057600080fd5b8101908080519060200190929190505050101561021c57600080fd5b7f4f0bc8d865a519d0863367c3e6aa06298b15f9aa129a7289c4bb803485765b9f600160009054906101000a900473ffffffffffffffffffffffffffffffffffffffff1673ffffffffffffffffffffffffffffffffffffffff166370a08231306040518263ffffffff1660e01b8152600401808273ffffffffffffffffffffffffffffffffffffffff1673ffffffffffffffffffffffffffffffffffffffff16815260200191505060206040518083038186803b1580156102dc57600080fd5b505afa1580156102f0573d6000803e3d6000fd5b505050506040513d602081101561030657600080fd5b81019080805190602001909291905050506040518082815260200191505060405180910390a17f2da144dde9587136a66a1a49b0644390ef1a8f7beed4eaa721d63a68b01ad073816040518082815260200191505060405180910390a1600160009054906101000a900473ffffffffffffffffffffffffffffffffffffffff1673ffffffffffffffffffffffffffffffffffffffff1663a9059cbb33836040518363ffffffff1660e01b8152600401808373ffffffffffffffffffffffffffffffffffffffff1673ffffffffffffffffffffffffffffffffffffffff16815260200182815260200192505050602060405180830381600087803b15801561040c57600080fd5b505af1158015610420573d6000803e3d6000fd5b505050506040513d602081101561043657600080fd5b810190808051906020019092919050505061045057600080fd5b806003600082825401925050819055507f5e5e995ce3133561afceaa51a9a154d5db228cd7525d34df5185582c18d3df093382604051808373ffffffffffffffffffffffffffffffffffffffff1673ffffffffffffffffffffffffffffffffffffffff1681526020018281526020019250505060405180910390a150565b60035481565b600160009054906101000a900473ffffffffffffffffffffffffffffffffffffffff1681565b60025481565b60008082148061051d575082828385029250828161051a57fe5b04145b61052657600080fd5b9291505056fea265627a7a72315820081f523ef163a05fb44823db559ab50a80fab02ebb9454db244005ea00dafc3c64736f6c63430005100032",
  "source": "pragma solidity >=0.4.22 <0.9.0;\r\n\r\nimport \"./MaToken.sol\";\r\ncontract MaTokenSale{\r\n    address admin;\r\n    //contract data type\r\n    MaToken public tokenContract;\r\n    uint256 public tokenPrice;\r\n    uint256 public tokensSold;\r\n\r\n    event Sell(\r\n        address _buyer,\r\n        uint256 _amount\r\n    );\r\n\r\n    event DebugBalance(\r\n        uint256 _message\r\n    );\r\n\r\n    event DebugNumTokens(\r\n        uint256 _message\r\n    );\r\n\r\n    constructor(MaToken _tokenContract, uint256 _tokenPrice) public{\r\n        // Assign an admin -- essentially an external account that will have special rights\r\n        // Have the ability to terminate the sale \r\n        \r\n        admin = msg.sender; //admin is the person that deploys the contract \r\n\r\n        //Assign the token contract \r\n        //Assign token price \r\n        tokenContract = _tokenContract;\r\n        tokenPrice = _tokenPrice;\r\n\r\n        \r\n    }\r\n    // Safe multiplication from \r\n    //https://github.com/dapphub/ds-math/blob/master/src/math.sol\r\n    function multiply(uint x, uint y) internal pure returns (uint z) {\r\n        require(y == 0 || (z = x * y) / y == x);\r\n    }\r\n\r\n    //Buy tokens\r\n    function buyTokens(uint256 _numberOfTokens) public payable {\r\n        \r\n\r\n        // Require that value spent is equal to the tokens\r\n        require(msg.value == multiply(_numberOfTokens, tokenPrice));\r\n\r\n        //Require there are enough tokens \r\n        require(tokenContract.balanceOf(address(this)) >= _numberOfTokens);        \r\nemit DebugBalance(tokenContract.balanceOf(address(this)));\r\n        emit DebugNumTokens(_numberOfTokens);\r\n\r\n        // Require that a transfer is successful \r\n        require(tokenContract.transfer(msg.sender,_numberOfTokens));\r\n\r\n\r\n        //Keep track of the number of tokens sold \r\n        tokensSold += _numberOfTokens;\r\n        emit Sell(msg.sender, _numberOfTokens);\r\n        //Emit Sell event \r\n\r\n        \r\n\r\n\r\n    }\r\n}",
  "sourcePath": "C:/Users/dmack/Desktop/ICO/contracts/MaTokenSale.sol",
  "compiler": {
    "name": "solc",
    "version": "0.5.16+commit.9c3226ce.Emscripten.clang"
  },
  "schemaVersion": "3.3.4",
  "updatedAt": "2021-04-04T00:02:30.799Z",
  "networkType": "ethereum",
  "devdoc": {
    "methods": {}
  },
  "userdoc": {
    "methods": {}
  }
}