{
  "contractName": "MaToken",
  "abi": [
    {
      "inputs": [],
      "payable": false,
      "stateMutability": "nonpayable",
      "type": "constructor"
    },
    {
      "constant": true,
      "inputs": [],
      "name": "totalSupply",
      "outputs": [
        {
          "internalType": "uint256",
          "name": "",
          "type": "uint256"
        }
      ],
      "payable": false,
      "stateMutability": "view",
      "type": "function"
    }
  ],
  "bytecode": "0x6080604052348015600f57600080fd5b50620f42406000819055506084806100286000396000f3fe6080604052348015600f57600080fd5b506004361060285760003560e01c806318160ddd14602d575b600080fd5b60336049565b6040518082815260200191505060405180910390f35b6000548156fea265627a7a72315820443b19d72c696e2d63e95ac6fd676770f4233ca7e9042baf5e712d673e840d1564736f6c63430005100032",
  "source": "pragma solidity >=0.4.22 <0.9.0;\r\n// pragma solidity >=0.5.0 <0.6.0;\r\n\r\ncontract MaToken{\r\n\r\n    //Constructor --> Run anytime contract is deployed\r\n    // Set the total number of tokens\r\n    //Read the total number of tokens \r\n    uint256 public totalSupply;\r\n\r\n    constructor () public{\r\n        totalSupply = 1000000;\r\n\r\n    }\r\n}",
  "sourcePath": "C:/Users/dmack/Desktop/ICO/contracts/MaToken.sol",
  "compiler": {
    "name": "solc",
    "version": "0.5.16+commit.9c3226ce.Emscripten.clang"
  },
  "schemaVersion": "3.3.4",
  "updatedAt": "2021-03-28T23:42:22.984Z",
  "networkType": "ethereum",
  "devdoc": {
    "methods": {}
  },
  "userdoc": {
    "methods": {}
  }
}